:0300000002187172
:0C187100787FE4F6D8FD75817D0218092F
:1016B30074207461736B300A0074207461736B312E
:1016C3000A0074207461736B320A006320746173BF
:1016D3006B300A0063207461736B310A00632074FA
:1016E30061736B320A0069207461736B300A00699D
:1016F300207461736B310A0069207461736B320A61
:101703000064207461736B300A0064207461736B2E
:10171300310A0064207461736B320A0020546173D0
:101723006B3020697320657865637574696E672E05
:101733002E2025302E30660A00205461736B312031
:10174300697320657865637574696E672E2E20252D
:06175300302E30660A0092
:081888005389F2D28CD2A9228F
:10184800438780759852758920758BFD758DFDD2FB
:061858008ED2ACC2982202
:08189000C2998F993099FD22E5
:071898003098FDAF99C298E2
:01189F002226
:0617B4007B007A0079427F
:0617BA008B628A63896462
:1017C000E4FEAB62AA63A9648E82758300120CA347
:1017D000FF640A600CEED3945050061218900E80ED
:0117E000E127
:0117E10022E5
:0B187D005307F0EFC4540F2430FF228B
:0818A00053070F74302FFF22E3
:10175900EFD39459400474062FFFEFD3944F4004FC
:1017690074062FFFEFD39445400474062FFFEFD37F
:10177900943B400474062FFFEFD394314004740660
:101789002FFFEFD39427400474062FFFEFD3941D46
:10179900400474062FFFEFD39413400474062FFFFF
:0B17A900EFD39409400474062FFF22C8
:10185E00121759AE0712187D121890AF061218A063
:03186E00021890CD
:10182B00E4FE12189874322EF8A6070EBF0DF31EA5
:0C183B0074322EF8760A7B007A007932B5
:01184700227E
:0300230002140BB9
:10140B00C0E0C0F0C083C082C0D075D000C000C0A7
:0D141B0001C002C003C004C005C006C00728
:10142800C2AFC29920980302156412182B78227C47
:10143800007D00120F7F78227C007D007BFF7A16EA
:1014480079B3120E96EF7002C20978227C007D00F3
:101458007BFF7A1679BC120E96EF7002C20A7822C8
:101468007C007D007BFF7A1679C5120E96EF70021C
:10147800C20B78227C007D007BFF7A1679CE120E93
:1014880096EF7002D20978227C007D007BFF7A16E5
:1014980079D7120E96EF7002D20A78227C007D006E
:1014A8007BFF7A1679E0120E96EF7002D20B782243
:1014B8007C007D007BFF7A1679E9120E96EF700B9F
:1014C800E51AC313F51AE51B13F51B78227C007D7A
:1014D800007BFF7A1679F2120E96EF700BE51CC3AB
:1014E80013F51CE51D13F51D78227C007D007BFF9C
:1014F8007A1679FB120E96EF700BE51EC313F51ED4
:10150800E51F13F51F78227C007D007BFF7A177991
:1015180004120E96EF700BE51B25E0F51BE51A3358
:10152800F51A78227C007D007BFF7A17790D120E60
:1015380096EF700BE51D25E0F51DE51C33F51C78CD
:10154800227C007D007BFF7A177916120E96EF70C9
:0E1558000BE51F25E0F51FE51E33F51ED2AF93
:10156600D007D006D005D004D003D002D001D000D9
:0B157600D0D0D082D083D0F0D0E03283
:03000B000215815A
:10158100C0E0C0F0C083C082C0D075D000C000C030
:0D15910001C002C003C004C005C006C007B1
:10159E00C2AFC2A90511E511700205100513E513BE
:1015AE00700205120515E51570020514AF19AE1877
:1015BE00AD17AC167B177AB779D178381208078F2A
:1015CE00198E188D178C1630092BC3E511951BE556
:1015DE0010951A4020751000751100AF0BAE0AADB4
:1015EE0009AC08E4FBFA7980783F1208078F0B8E5E
:1015FE000A8D098C08300A2BC3E513951DE512954B
:10160E001C4020751200751300AF0FAE0EAD0DAC61
:10161E000CE4FBFA7980783F1208078F0F8E0E8D3F
:10162E000D8C0C300B5EC3E515951FE514951E4011
:10163E00537514007515003009217565FF75661711
:10164E0075671F850B6B850A6A8509698508687B36
:10165E00007A007942120FF81217B4300A2175651C
:10166E00FF75661775673C850F6B850E6A850D696C
:10167E00850C687B007A007942120FF81217B47F3E
:0A168E000D121890C28DD2A9D2AF40
:10169800D007D006D005D004D003D002D001D000A6
:0B16A800D0D0D082D083D0F0D0E03250
:10180900E4F5A8D2AF121888121848D209D20AD220
:101819000BF51A751B64F51C751DC8F51E751F326D
:0218290080FE3F
:1008000002092DE86480F8E933E83360110460F0F0
:10081000ED33EC337009E8FCE9FDEAFEEBFF22045E
:1008200060DED3EB9FEA9EE99DE8C2E78CF0C2F759
:1008300095F0400CE8CCF8E9CDF9EACEFAEBCFFB25
:100840001208F885D0F05804700320D5B3E804707E
:10085000075002B2D502093792D5EC0460F7E4CC18
:10086000C0E0C398F8603B94186008400DD0E0FBEE
:1008700002090FE4FBFAC9FC8028E830E406E4C969
:10088000FBE4CAFCE830E305E4C9CACBFCE8540742
:100890006010F8C3E913F9EA13FAEB13FBEC13FC4D
:1008A000D8F130F52FC3E49CFCEF9BFFEE9AFEEDF0
:1008B00099FDD0E0FBEF4E4D4C701222DB03020994
:1008C00034EC2CFCEF33FFEE33FEED33FDED30E77F
:1008D000EB02090FEF2BFFEE3AFEED39FDD0E0FB06
:1008E00050130BBB0003020937ED13FDEE13FEEFAF
:0808F00013FFEC13FC02090FD9
:100F9C00E5792465F8E605792278623007027865F0
:100FAC00E475F001120CE2020C8A2000EB7F2ED2C9
:100FBC00008018EF540F2490D43440D4FF30040B2D
:100FCC00EF24BFB41A0050032461FFE57A600215C8
:100FDC007A057DE57D7002057C30070D7862E4753D
:100FEC00F001120CE2EF020CD00217E27403D207EC
:100FFC008003E4C207F5798B628A638964E4F57A2D
:10100C00F57CF57DE57A60077F20120FD780F575AA
:10101C007BFFC201C200C202C203C205C206C208E3
:10102C00120FA5FF700D3007057F00120FE8AF7D82
:10103C00AE7C22B4255FC2D5C204120FA5FF24D00A
:10104C00B40A00501A75F00A787A30D50508B6FF44
:10105C000106C6A426F620D5047002D20380D9243A
:10106C00CFB41A00EF5004C2E5D2040212D5D2015B
:10107C0080C6D20080C0D20280BCD2D580BAD20544
:10108C0080B47F20120FD72002077401B57A00407C
:10109C00F1120F9CFF120FD7021010D208D206804B
:1010AC0095120F9CFB120F9CFA120F9CF94A4B7075
:1010BC000679CC7A137BFF20022EE57A602A7E001B
:1010CC008E82758300120CA360060EEE657B70F0A9
:1010DC00C2D5EBC0E0EAC0E0E9C0E0EE121335D0B7
:1010EC00E0F9D0E0FAD0E0FB120C8AFF60AAEBC06A
:1010FC00E0EAC0E0E9C0E0120FD7D0E02401F9D05B
:10110C00E03400FAD0E0FBE57B0460DCD57BD980D1
:10111C0087D20280A212131860F7E57B70010412CB
:10112C000942A97B600DE57B600914F57B1213BFA6
:10113C00EF60F3EA30E702F404C3995077EAF42540
:10114C007B0430E701E404F57B800D12131860C1B9
:10115C00EA057B257B120942EA7878F630E701E450
:10116C00257B04D57B0420050114121335E4C0E063
:10117C001213BF7878E6601320E70714F6120FBF3E
:10118C00802204F6D0E014C0E07F00120FBFE57B94
:10119C006007120FB6157B800B300503120FB6D00B
:1011AC00E0021010D0E00480C512131860A0E57B9B
:1011BC00041209427878EAF6E57B20050260010406
:0511CC0024041213359C
:1011D10074FF04C0E01213BF120FBFE57B200502AC
:1011E1006003120FB6D0E0B57BE87F45120FC978D6
:1011F10078E67F2B30E7047F2DF404C0E0120FD78F
:10120100D0E075F00A84C0F0120FC0D0E0120FC018
:10121100021010791080027908C206C2088008D233
:10122100D5790A8004790AC2D5E57B047002F57B81
:10123100E4FAFDFEFF120F9CFC7B08200113120F44
:101241009CFD7B1030000A120F9CFE120F9CFF7B4D
:1012510020EC3382D592D55013C3E43000069FFFB2
:10126100E49EFEE42001039DFDE49CFCE4CBF8C276
:1012710001EC700CCFCECDCCE824F8F870F38017D8
:10128100C3EF33FFEE33FEED33FDEC33FCEB33FB09
:10129100994002FB0FD8E9EB300105F8D0E0C448D2
:1012A100B201C0E00AEC4D4E4F78207B0070C2EADB
:1012B100B57B0040BCC0E0121337D0F0D0E0200174
:1012C10004C4C0E0C4B201C0F0120FC0D0F0D5F028
:1012D100EB021010120CF210AD53121458107E4C88
:1012E100107A4212184F12204412204910934312CF
:1012F100265511574611B54511214713EC5010825F
:101301002D10862E10A92B108A2310A72013D52A61
:10131100104248000010A1E57BB4FF03757B061263
:101321000F9CFC120F9CFD120F9CFE120F9CFF786C
:1013310071020971790AA2D5200314300509B91087
:10134100020404B9080104A2D520060250010420B8
:1013510002689202B57A005034C0E07F2030031950
:101361007F30A20272067205500F12138EC202C2A2
:1013710006C205C2087F30800F300503E9C0E012C4
:101381000FD7300503D0E0F9D0E0B57ACC3005179E
:101391007F30B9100C120FD77F583004077F788047
:1013A10003B90803120FD73002057F2D020FD77F33
:1013B100202008F87F2B2006F322920280CF7F00A5
:1013C100B4070050052471F8E6FF22286E756C6C95
:1013D1002900D201120F9C3001F8C201787A30D570
:1013E1000108F60210422D50434958120F9C240364
:1013F100B405004001E49013E793120FC8743A1248
:0A1401000FC8D203757A040212141A
:1008F800E9D2E7C933E833F892D5EDD2E7CD33EC46
:0709080033FC5002B2D522BE
:10090F00EC30E7100FBF000C0EBE00080DBD000449
:10091F000BEB6014A2D5EB13FCED92E7FD2274FFF5
:10092F00FCFDFEFF22E480F8A2D574FF13FC7D804E
:03093F00E480EF62
:10094200F920E72824F950037907E4F42402FB187C
:10095200DBFDE624FB5014E9600DE4F618E604F62C
:0F096200B40A08E4F6D9F57401F60A22C2D522C8
:10097100ED33EC3392D5FA602AB4FF33EDC2E77B55
:10098100FF60067A097996E4227A09799F20D504D5
:100991007A09799A224E614E002B494E46002D4923
:1009A1004E4600E47A08F608DAFC7B00740722E878
:1009B100C0E0ECC0E0EDC0E0EEC0E0EFC0E0EA7501
:1009C100F010A4CAABF075F04DA42BFBE435F0FC9C
:1009D100EA2410FAEB34C5FBEC34D9FCEDC2E7FF95
:1009E10075F056A4F42411C5F0F434C58FF0A42A8F
:1009F100E5F03BE43CF620E714120C4AD0E0FFD0CE
:100A0100E0FED0E0FDD0E0FC120B7D8014F4041276
:100A11000C4AD0E0FFD0E0FED0E0FDD0E0FC120AAD
:100A210074D0E0F8E6FAEDD2E7CD33EC332482FB63
:100A3100E4C3CF33CFCE33CECD33CD33DBF37B071E
:100A410075F00A846004F6081B0AE5F0F6088FF0D9
:100A5100740AA4FFACF08EF0740AA42CFEACF05022
:100A6100010C8DF0740AA42CFDE435F0F608DBDEF0
:030A7100740722E5
:100A7400EC4D6011E8497017ED33EC3304600DE47C
:100A8400FCFFFEFD22E933E8330470F802092D125D
:100A940008F858046009E4CC24815006285009025F
:100AA4000937284003020934C0E0EB4A7044B98096
:100AB40006D0E0FB020923EF4E701CBD8008EBFF5B
:100AC400EAFEE9FD80EBE98DF0A4FEE5F0020B5DA2
:100AD400E9CDF9EAFEEBFFEF89F0A4FCE5F0CE895D
:100AE400F0A42EFFE435F0CD89F0A42DFEE435F01A
:100AF4008067EF4E7005BD80D780C3EF8BF0A4AC48
:100B0400F0EE8BF0A42CFCE435F0F8EF8AF0A42C82
:100B1400E5F038FCE433CB8DF0A42CFCE5F03BF895
:100B2400EE8AF0A42CFCE5F038F8E433CF89F0A485
:100B34002CFCE5F038CF3400CE89F0A42FFFE5F08B
:100B44003EFEE433C98DF0A42EFEE5F039CD8AF0E3
:100B5400A42FFFE5F03EFEE43DFD33D0E0FB50075B
:100B64000BBB000F020937EC2CFCEF33FFEE33FE16
:060B7400ED33FD02090F44
:100B7A00020937EC5D046005E85904700302092D87
:100B8A001208F8580460F6EC4860F2EC7004FDFEB6
:100B9A00FF22C860DB2481C85009C398600250064E
:100BAA000209349850CAF582E9294B4A7005AB828A
:100BBA0002092375F0007C1A7880C3EF9BEE9AED48
:100BCA0099400DC3EF9BFFEE9AFEED99FDE842F0C6
:100BDA00DC23ACF0D0E0FFD0E0FED0E0FDAB822019
:100BEA00E7101BEB60BAEC2CFCEF33FFEE33FEEDA3
:100BFA0033FD02090FE803F830E705C0F075F0008D
:100C0A00EF2FFFEE33FEED33FD40B830E7C280AA86
:100C1A003F8000004120000042C80000447A0000E2
:100C2A00461C400047C35000497424004B18968064
:100C3A004CBEBC205A0E1BCA6753C21C749DC5AE5B
:100C4A00FB60065407601C2323120C78EB543860AF
:100C5A0009120C64120C73120A74ECF8EDF9EEFA2C
:100C6A00EFCB22EB120C7380F1543803241C900C46
:100C7A001AFE93FC0EEE93FD0EEE930ECE93FF2218
:100C8A00BB010689828A83E0225002E722BBFE0268
:090C9A00E32289828A83E493229B
:100CA300BB010CE58229F582E5833AF583E0225006
:100CB30006E92582F8E622BBFE06E92582F8E22250
:0D0CC300E58229F582E5833AF583E493226A
:100CD000BB010689828A83F0225002F722BBFE0103
:020CE000F322FD
:100CE200FAE6FB0808E6F925F0F618E6CA3AF62213
:100CF200D083D082F8E4937012740193700DA3A391
:100D020093F8740193F5828883E4737402936860A4
:060D1200EFA3A3A380DFA4
:1017E200EFB40A07740D1217ED740A309811A89914
:1017F200B8130CC2983098FDA899C298B811F63067
:0718020099FDC299F599223E
:100D1800E3F5F009E208B5F06D606B80F3E3F5F0F8
:100D280009E608B5F060605E80F387F009E608B56B
:100D3800F054605280F487F009E208B5F048604644
:100D480080F488828C8387F009E0A3B5F038603698
:100D580080F488828C8387F009E493A3B5F0276038
:100D68002580F388828C83E3F5F009E0A3B5F016BB
:100D7800601480F388828C83E3F5F009E493A3B5CB
:100D8800F004600280F2020E43808580E7808E8046
:100D9800D2803C8015806C807E809B80B5808B8063
:100DA800A1804F8070803A020E4F89828A83ECFAC4
:100DB800E493F5F0A3C8C582C8CCC583CCE493A35B
:100DC800C8C582C8CCC583CCB5F070606E80E18997
:100DD800828A83E493F5F0A3E208B5F05E605C8054
:100DE800F289828A83E0F5F0A3E608B5F04D604BFE
:100DF80080F389828A83E0F5F0A3E208B5F03C60CD
:100E08003A80F389828A83E493F5F0A3E608B5F083
:100E18002A602880F2805389828A83ECFAE493F569
:100E2800F0A3C8C582C8CCC583CCE0A3C8C582C816
:100E3800CCC583CCB5F004600280E27FFFB5F00238
:100E48000F2240027F012289828A83ECFAE0F5F0C2
:100E5800A3C8C582C8CCC583CCE0A3C8C582C8CC0A
:100E6800C583CCB5F0D560D380E389828A83ECFA58
:100E7800E0F5F0A3C8C582C8CCC583CCE493A3C869
:100E8800C582C8CCC583CCB5F0B160AF80E288F02C
:100E9800ED2402B4040050A3F582EB2402B404004C
:0B0EA80050992323458223900D917385
:100EB300E709F60870FA8046E709F20870FA803EFF
:100EC30088828C83E709F0A370FA807EE309F60831
:100ED30070FA8076E309F20870FA806E88828C8358
:100EE300E309F0A370FA806289828A83E0A3F6089B
:100EF30070FA805689828A83E0A3F20870FA804AE6
:100F030080D280FA80C680D4806580F280318010E0
:100F130080A680EA809A80A880DA80E280CA803145
:100F230089828A83ECFAE493A3C8C582C8CCC583BB
:100F3300CCF0A3C8C582C8CCC583CC70E9800D8929
:100F4300828A83E493A3F60870F9ECFAA9F0EDFB27
:100F53002289828A83ECFAE0A3C8C582C8CCC58300
:100F6300CCF0A3C8C582C8CCC583CC70EA80DD8928
:100F7300828A83E493A3F20870F980CE88F0ED248B
:100F830002B4040050C4F582EB2402B4040050BA46
:090F93002323458223900F037310
:00000001FF
